:100000000C9434080C9451080C9451080C94510829
:100010000C9451080C9451080C9451080C945108FC
:100020000C9451080C9451080C9451080C945108EC
:100030000C9451080C9451080C9451080C945108DC
:100040000C9451080C9451080C9451080C945108CC
:100050000C9451080C9451080C9451080C945108BC
:100060000C9451080C945108D3FFD5FFD8FFDBFF47
:10007000DEFFE1FFE4FFE6FFE9FFECFFEFFFF2FF49
:10008000F5FFF7FFFAFFFDFF00000300060009007F
:100090000B000E001100140017001A001C001F00B6
:1000A0002200250028002B00D1FFD4FFD7FFDAFF64
:1000B000DCFFDFFFE2FFE5FFE8FFEBFFEEFFF1FF14
:1000C000F4FFF7FFFAFFFDFF000003000600090040
:1000D0000C000F001200150018001B001E0021006C
:1000E0002400260029002C00CFFFD2FFD5FFD8FF27
:1000F000DBFFDEFFE1FFE4FFE7FFEAFFEDFFF1FFDB
:10010000F4FFF7FFFAFFFDFF0000030006000900FF
:100110000C000F001300160019001C001F00220025
:10012000250028002B002E00CCFFD0FFD3FFD6FFE8
:10013000D9FFDDFFE0FFE3FFE6FFE9FFEDFFF0FFA2
:10014000F3FFF6FFFAFFFDFF0000030006000A00C0
:100150000D001000130017001A001D0020002300DE
:1001600027002A002D003000CAFFCDFFD1FFD4FFA9
:10017000D8FFDBFFDEFFE2FFE5FFE8FFECFFEFFF6C
:10018000F3FFF6FFF9FFFDFF0000030007000A0080
:100190000D001100140018001B001E002200250095
:1001A00028002C002F003300C8FFCBFFCFFFD2FF69
:1001B000D6FFD9FFDDFFE0FFE4FFE7FFEBFFEEFF37
:1001C000F2FFF5FFF9FFFCFF0000040007000B0041
:1001D0000E001200150019001C002000230027004B
:1001E0002A002E0031003500C5FFC9FFCDFFD0FF2A
:1001F000D4FFD8FFDBFFDFFFE3FFE6FFEAFFEEFF00
:10020000F1FFF5FFF9FFFCFF0000040007000B0001
:100210000F00120016001A001D0021002500280002
:100220002C00300033003700C3FFC6FFCAFFCEFFEB
:10023000D2FFD6FFDAFFDDFFE1FFE5FFE9FFEDFFCB
:10024000F1FFF4FFF8FFFCFF0000040008000C00C1
:100250000F00130017001B001F00230026002A00B8
:100260002E00320036003A00C0FFC4FFC8FFCCFFAA
:10027000D0FFD4FFD8FFDCFFE0FFE4FFE8FFECFF96
:10028000F0FFF4FFF8FFFCFF0000040008000C0082
:100290001000140018001C002000240028002C006E
:1002A0003000340038003C00BDFFC1FFC5FFCAFF6D
:1002B000CEFFD2FFD6FFDAFFDFFFE3FFE7FFEBFF62
:1002C000EFFFF3FFF8FFFCFF0000040008000D0043
:1002D0001100150019001D00210026002A002E0023
:1002E000320036003B003F00BAFFBEFFC3FFC7FF2E
:1002F000CCFFD0FFD4FFD9FFDDFFE1FFE6FFEAFF2F
:10030000EFFFF3FFF7FFFCFF0000040009000D0002
:10031000110016001A001F00230027002C003000D7
:10032000340039003D004200B7FFBCFFC0FFC5FFED
:10033000C9FFCEFFD2FFD7FFDBFFE0FFE5FFE9FFFC
:10034000EEFFF2FFF7FFFBFF0000050009000E00C3
:10035000120017001B002000250029002E0032008B
:1003600037003B0040004400B4FFB9FFBDFFC2FFAF
:10037000C7FFCCFFD0FFD5FFDAFFDFFFE3FFE8FFC9
:10038000EDFFF2FFF6FFFBFF000005000A000E0084
:10039000130018001D00210026002B00300034003F
:1003A00039003E0043004700B0FFB5FFBAFFBFFF72
:1003B000C4FFC9FFCEFFD3FFD8FFDDFFE2FFE7FF99
:1003C000ECFFF1FFF6FFFBFF000005000A000F0045
:1003D000140019001E00230028002D0032003700F1
:1003E0003C00410046004B00ADFFB2FFB7FFBCFF31
:1003F000C2FFC7FFCCFFD1FFD6FFDCFFE1FFE6FF66
:10040000EBFFF0FFF6FFFBFF000005000A00100005
:1004100015001A001F0024002A002F0034003900A4
:100420003E00440049004E00A9FFAFFFB4FFB9FFF2
:10043000BFFFC4FFCAFFCFFFD5FFDAFFDFFFE5FF35
:10044000EAFFF0FFF5FFFBFF000005000B001000C6
:1004500016001B00210026002B00310036003C0056
:10046000410047004C0051002C008500DE003701A0
:100470009001EA0143029D02F6025003AA0304041C
:100480005E04B90413056E05C80523067E06D90669
:1004900034079007EB074708A208FE085A09B60977
:1004A000120A6E0ACB0A270B840BE10B3E0C9B0C45
:1004B000F80C550DB20D100E6E0ECB0E290F870FD6
:1004C000E60F4410A21001115F11BE111D127C1223
:1004D000DB123B139A13FA135A14B9141915791530
:1004E000DA153A169B16FB165C17BD171E187F18F7
:1004F000E0184219A319051A671AC91A2B1B8D1B7C
:10050000EF1B521CB41C171D7A1DDD1D401EA31EBF
:10051000071F6A1FCE1F32209620FA205E21C221BB
:1005200027228B22F0225523BA231F248524EA2474
:100530005025B5251B268126E7264E27B4271B28E4
:100540008128E8284F29B6291E2A852AEC2A542B0F
:10055000BC2B242C8C2CF42C5D2DC52D2E2E972EEF
:10056000FF2E692FD22F3B30A5300E317831E2318A
:100570004C32B63221338B33F6336134CC343735D9
:10058000A2350D367936E5365037BC3728389538E0
:1005900001396E39DA39473AB43A213B8F3BFC3B9B
:1005A0006A3CD73C453DB33D223E903EFE3E6D3F0A
:1005B000DC3F4B40BA402941984108427842E7422B
:1005C0005743C8433844A84419458A45FA456C4600
:1005D000DD464E47C0473148A34815498749F94988
:1005E0006C4ADF4A514BC44B374CAA4C1E4D914DBF
:1005F000054E794EED4E614FD54F4A50BE503351A6
:10060000A8511D52935208537E53F3536954DF543B
:100610005555CC554256B9563057A7571E58955880
:100620000D598559FC59745AED5A655BDD5B565C72
:10063000CF5C485DC15D3A5EB45E2D5FA75F21600F
:100640009B60156190610B62856200637B63F76359
:100650007264EE646A65E5656266DE665A67D7674E
:100660005468D1684E69CB69496AC66A446BC26BEB
:10067000406CBF6C3D6DBC6D3B6EBA6E396FB86F30
:100680003870B7703771B7713872B8723873B97320
:100690003A74BB743C75BE754076C1764377C577B6
:1006A0004878CA784D79D079537AD67A597BDD7BF0
:1006B000617CE57C697DED7D717EF67E7B7F0080CF
:1006C00085800A81908116829C822283A8832E8451
:1006D000B5843C85C3854A86D1865987E187688879
:1006E000F1887989018A8A8A138B9C8B258CAE8C40
:1006F000388DC28D4C8ED68E608FEB8F75900091A9
:100700008B911792A2922E93B9934594D2945E95B1
:10071000EB957796049792971F98AC983A99C89959
:10072000569AE49A739B029C919C209DAF9D3E9E9D
:10073000CE9E5E9FEE9F7EA00FA19FA130A2C1A280
:1007400052A3E4A375A407A599A52BA6BEA651A7FD
:10075000E3A776A80AA99DA931AAC4AA58ABEDAB14
:1007600081AC16ADAAAD3FAED5AE6AAF00B095B0C4
:100770002BB1C2B158B2EFB286B31DB4B4B44BB50D
:10078000E3B57BB613B7ABB744B8DCB875B90EBAEE
:10079000A8BA41BBDBBB75BC0FBDA9BD44BEDFBE63
:1007A0007ABF15C0B0C04CC1E8C184C220C3BCC36D
:1007B00059C4F6C493C530C6CEC66CC70AC8A8C80B
:1007C00046C9E5C983CA22CBC2CB61CC01CDA1CD3C
:1007D00041CEE1CE82CF22D0C3D065D106D2A8D2FD
:1007E00049D3EBD38ED430D5D3D576D619D7BCD751
:1007F00060D804D9A8D94CDAF1DA95DB3ADCDFDC31
:1008000085DD2ADED0DE76DF1DE0C3E06AE111E29D
:10081000B8E25FE307E4AFE457E5FFE5A8E651E798
:10082000FAE7A3E84CE9F6E9A0EA4AEBF5EB9FEC1E
:100830004AEDF5EDA0EE4CEFF8EFA4F050F1FCF12D
:10084000A9F256F303F4B1F45EF50CF6BAF669F7C3
:1008500017F8C6F875F924FAD4FA84FB34FCE4FCE2
:1008600094FD45FEF6FEA7FFA6FFACFFB2FFB7FF63
:10087000BDFFC2FFC8FFCEFFD3FFD9FFDEFFE4FFFD
:10088000EAFFEFFFF5FFFAFF000006000B00110082
:1008900016001C00220027002D00320038003E0008
:1008A000430049004E005400ACFFB1FFB6FFBBFF50
:1008B000C1FFC6FFCBFFD1FFD6FFDBFFE0FFE6FFA6
:1008C000EBFFF0FFF5FFFBFF000005000B00100041
:1008D00015001A00200025002A002F0035003A00DC
:1008E0003F0045004A004F00B0FFB5FFBAFFBFFF11
:1008F000C4FFC9FFCEFFD3FFD8FFDDFFE2FFE7FF54
:10090000ECFFF1FFF6FFFBFF000005000A000F00FF
:10091000140019001E00230028002D0032003700AB
:100920003C00410046004B00B4FFB9FFBEFFC2FFD0
:10093000C7FFCCFFD1FFD5FFDAFFDFFFE4FFE8FF01
:10094000EDFFF2FFF7FFFBFF0000050009000E00BE
:10095000130018001C00210026002B002F0034007B
:1009600039003E0042004700B8FFBCFFC1FFC5FF91
:10097000CAFFCEFFD3FFD7FFDCFFE0FFE5FFE9FFB3
:10098000EEFFF2FFF7FFFBFF0000050009000E007D
:10099000120017001B002000240029002D00320047
:1009A00036003B003F004400BBFFC0FFC4FFC8FF50
:1009B000CCFFD1FFD5FFD9FFDEFFE2FFE6FFEBFF63
:1009C000EFFFF3FFF7FFFCFF0000040009000D003C
:1009D000110015001A001E00220027002B002F0016
:1009E000340038003C004000BEFFC2FFC7FFCBFF11
:1009F000CFFFD3FFD7FFDBFFDFFFE3FFE7FFEBFF17
:100A0000F0FFF4FFF8FFFCFF0000040008000C00FA
:100A10001000150019001D002100250029002D00DF
:100A20003100350039003E00C1FFC5FFC9FFCDFFD1
:100A3000D1FFD5FFD9FFDDFFE1FFE4FFE8FFECFFC9
:100A4000F0FFF4FFF8FFFCFF0000040008000C00BA
:100A50001000140018001C001F00230027002B00AA
:100A60002F00330037003B00C4FFC7FFCBFFCFFF91
:100A7000D3FFD7FFDAFFDEFFE2FFE6FFE9FFEDFF7E
:100A8000F1FFF5FFF8FFFCFF0000040008000B0079
:100A90000F00130017001A001E0022002600290074
:100AA0002D00310035003900C6FFCAFFCDFFD1FF50
:100AB000D5FFD8FFDCFFDFFFE3FFE7FFEAFFEEFF34
:100AC000F2FFF5FFF9FFFCFF0000040007000B0038
:100AD0000E001200160019001D002100240028003D
:100AE0002B002F0033003600C8FFCCFFCFFFD3FF11
:100AF000D6FFDAFFDDFFE1FFE4FFE8FFEBFFEFFFEA
:100B0000F2FFF6FFF9FFFDFF0000030007000A00F7
:100B10000E001100150018001C001F002300260005
:100B20002A002D0031003400CAFFCEFFD1FFD4FFD0
:100B3000D8FFDBFFDEFFE2FFE5FFE8FFECFFEFFFA2
:100B4000F3FFF6FFF9FFFDFF0000030007000A00B6
:100B50000D001100140018001B001E0022002500CB
:100B600028002C002F003200CCFFCFFFD3FFD6FF90
:100B7000D9FFDCFFE0FFE3FFE6FFE9FFEDFFF0FF59
:100B8000F3FFF6FFFAFFFDFF0000030006000A0076
:100B90000D001000130017001A001D002000240093
:100BA00027002A002D003100CEFFD1FFD4FFD7FF50
:100BB000DAFFDEFFE1FFE4FFE7FFEAFFEDFFF0FF12
:100BC000F3FFF7FFFAFFFDFF000003000600090036
:100BD0000D0010001300160019001C001F00220059
:100BE000260029002C002F00D0FFD3FFD6FFD9FF0D
:100BF000DCFFDFFFE2FFE5FFE8FFEBFFEEFFF1FFC9
:100C0000F4FFF7FFFAFFFDFF0000030006000900F4
:100C10000C000F001200150018001B001E00210020
:100C2000240027002A002D00D1FFD4FFD7FFDAFFD0
:100C3000DDFFE0FFE3FFE6FFE9FFEBFFEEFFF1FF83
:100C4000F4FFF7FFFAFFFDFF0000030006000900B4
:100C50000C000F001200150017001A001D002000E4
:100C60002300260029002C005C001501CD01840220
:100C70003B03F203A9045F051506CA067F07340883
:100C8000E9089D09500A040BB70B6A0C1C0DCE0D28
:100C9000800E310FE20F93104311F311A31253137F
:100CA0000214B0145F150D16BB1668171518C2187C
:100CB0006F191B1AC71A731B1E1CC91C741D1E1E1C
:100CC000C81E721F1B20C4206D211622BE2266235F
:100CD0000D24B5245C250326A9264F27F5279B283C
:100CE0004029E5298A2A2E2BD22B762C1A2DBD2DB0
:100CF000602E032FA52F4730E9308B312C32CD32B7
:100D00006E330F34AF344F35EF358E362D37CC3749
:100D10006B380939A739453AE33A803B1D3CBA3C68
:100D2000563DF33D8F3E2A3FC63F6140FC40974110
:100D30003142CC426643FF4399443245CB45644639
:100D4000FC4695472D48C4485C49F3498A4A214BE3
:100D5000B84B4E4CE44C7A4D0F4EA54E3A4FCF4F08
:100D60006350F8508C512052B4524753DA536E54AA
:100D7000005593552556B7564957DB576C58FE58C2
:100D80008F59205AB05A405BD15B605CF05C805D4B
:100D90000F5E9E5E2D5FBB5F4A60D8606661F46146
:100DA00081620F639C632964B5644265CE655A66AF
:100DB000E6667267FD67886813699E69296AB36A87
:100DC0003D6BC76B516CDB6C646DEE6D776EFF6EC7
:100DD000886F117099702171A9713072B8723F7368
:100DE000C6734D74D4745A75E0756776EC76727775
:100DF000F8777D78027987790C7A917A157B997BDF
:100E00001D7CA17C257DA87D2C7EAF7E327FB57FA9
:100E10003780BA803C81BE814082C1824383C483D3
:100E20004584C6844785C8854886C9864987C98759
:100E30004888C8884789C789468AC58A438BC28B38
:100E4000408CBF8C3D8DBB8D388EB68E338FB18F6D
:100E50002E90AB902791A49120929C9219939493F9
:100E600010948C9407958395FE957996F3966E97DA
:100E7000E8976398DD985799D1994A9AC49A3D9B0F
:100E8000B79B309CA99C219D9A9D129E8B9E039F8F
:100E90007B9FF39F6AA0E2A059A1D0A147A2BEA266
:100EA00035A3ACA322A499A40FA585A5FBA571A683
:100EB000E6A65CA7D1A746A8BBA830A9A5A919AAF0
:100EC0008EAA02AB76ABEAAB5EACD2AC45ADB9ADA7
:100ED0002CAE9FAE12AF85AFF8AF6AB0DDB04FB1A8
:100EE000C1B133B2A5B217B389B3FAB36CB4DDB4F0
:100EF0004EB5BFB530B6A0B611B781B7F2B762B87C
:100F0000D2B842B9B2B921BA91BA00BB6FBBDEBB4D
:100F10004DBCBCBC2BBD9ABD08BE76BEE5BE53BF62
:100F2000C1BF2EC09CC00AC177C1E4C151C2BFC2BB
:100F30002BC398C305C471C4DEC44AC5B6C522C656
:100F40008EC6FAC666C7D1C73DC8A8C813C97EC930
:100F5000E9C954CABFCA2ACB94CBFECB69CCD3CC47
:100F60003DCDA7CD10CE7ACEE4CE4DCFB6CF1FD09B
:100F700088D0F1D05AD1C3D12CD294D2FCD265D32F
:100F8000CDD335D49DD404D56CD5D4D53BD6A2D6FB
:100F90000AD771D7D8D73FD8A5D80CD973D9D9D902
:100FA0003FDAA6DA0CDB72DBD8DB3DDCA3DC09DD43
:100FB0006EDDD3DD39DE9EDE03DF68DFCCDF31E0BE
:100FC00096E0FAE05FE1C3E127E28BE2EFE253E370
:100FD000B7E31AE47EE4E1E444E5A8E50BE66EE657
:100FE000D1E633E796E7F9E75BE8BEE820E982E976
:100FF000E4E946EAA8EA0AEB6BEBCDEB2EEC90ECC9
:10100000F1EC52EDB3ED14EE75EED6EE37EF97EF4F
:10101000F8EF58F0B8F019F179F1D9F139F298F206
:10102000F8F258F3B7F317F476F4D5F434F593F5F2
:10103000F2F551F6B0F60EF76DF7CBF72AF888F80F
:10104000E6F844F9A2F900FA5EFABCFA19FB77FB5C
:10105000D4FB32FC8FFCECFC49FDA6FD03FE60FED8
:10106000BCFE19FF75FFD2FF11241FBECFEFD8E0E1
:10107000DEBFCDBF11E0A0E0B1E0E2E8F5E102C0E3
:1010800005900D92A035B107D9F721E0A0E5B1E0B8
:1010900001C01D92A635B207E1F70E944B0A0C94DD
:1010A000BF0A0C940000CF93C82F8A3019F48DE04A
:1010B0000E9453088091C00085FFFCCFC093C600FA
:1010C00090E080E0CF910895AB01BC0189E0769576
:1010D0006795579547958A95D1F7CA0125E096956A
:1010E00087952A95E1F7880F991F8859934FFC013E
:1010F00025913491CA01892F99278695869575E0A7
:10110000880F991F7A95E1F7FA01EF71FF27E82B15
:10111000F92BEE0FFF1FE859F74F85919491092E97
:10112000000CAA0BBB0B820F931FA11DB11DB7FDB5
:1011300006C0009721E0A207B10524F4089590E0CD
:1011400080E008958FEF9FEF0895FC01EE0FEF2FE1
:10115000EE1FFF0BF195EE0FFF1FE859FB4F259196
:101160003491FC01EF2FFF27E295EF7065E0EE0F61
:10117000FF1F6A95E1F796958795969587958F71EC
:101180009927E82BF92BEE0FFF1FE859FF4F6591C8
:101190007491072E000C880B990B620F731F811D31
:1011A000911D6115710521E08207910524F06FEF13
:1011B0007FEF80E090E097FF03C060E070E0CB013C
:1011C00027E0660F771F881F991F2A95D1F708958A
:1011D0004F925F926F927F928F929F92AF92BF9247
:1011E000CF92DF92EF92FF92CF93DF936B017C015E
:1011F000E894F7F8CD28CE28CF2891F460E070E08D
:10120000CB01DF91CF91FF90EF90DF90CF90BF9017
:10121000AF909F908F907F906F905F904F900895C8
:1012200069017A01E894F7F8CD28CE28CF2831F368
:1012300049015A012B013C018F7799270E946408CC
:10124000EC01C501B4018F7799270E946408B301AE
:10125000A20137E176956795579547953A95D1F76D
:101260007501640157E1F694E794D794C7945A95B1
:10127000D1F7DD24EE24FF24C40ED11CE11CF11CA7
:101280002FE7C21AD108E108F108AC0170E060E074
:101290004C0F5D1F611D711DAB0166277727C40EC2
:1012A000D51EE61EF71E8C0F9D1F0E94A5081C145C
:1012B0001D041E041F040CF0A1CF84249524A62431
:1012C000B72488249924AA2420E8B2222FEFC2163A
:1012D000D104E104F1042CF0C501B40180689F67DA
:1012E00090CF27E1CC0CDD1CEE1CFF1C2A95D1F71A
:1012F000862A972AA82AB92AC701B6016829792916
:101300008A299B297ECF4F925F926F927F928F9214
:101310009F92AF92BF92CF92DF92EF92FF920F9384
:101320001F93CF93DF9300D000D000D0CDB7DEB7AE
:101330006B017C01E894F7F8CD28CE28CF28D1F4B2
:1013400060E070E0CB0126960FB6F894DEBF0FBECA
:10135000CDBFDF91CF911F910F91FF90EF90DF9064
:10136000CF90BF90AF909F908F907F906F905F9045
:101370004F90089569017A01E894F7F8CD28CE28B6
:10138000CF2859F462277327842795276627772764
:101390008827907880689F67D6CF49015A012B0132
:1013A0003C017C016B0137E1F694E794D794C79434
:1013B0003A95D1F7DD24EE24FF24DA01C40147E198
:1013C000B695A795979587954A95D1F78C019D017C
:1013D00011272227332709831A832B833C83C301D8
:1013E0008F7799270E9464089E838D83C501B4017D
:1013F0008F7799270E9464080D811E8170E060E05C
:101400009B01081B190B21093109D901C80140E0D2
:1014100050E0BA01B7FF04C011964FEF5FEFBA0179
:1014200009811A812B813C81C01AD10AE20AF30A90
:101430001FE7C10ED11CE11CF11CC40ED51EE61E17
:10144000F71E0E94A5081C141D041E041F040CF0A6
:1014500077CF84249524A624B72488249924AA2409
:1014600020E8B2223FEFC316D104E104F1041CF0DE
:10147000C501B4018FCF27E1CC0CDD1CEE1CFF1C95
:101480002A95D1F7682979298A299B296C297D29F0
:101490008E299F2958CFCF93DF93CDB7DEB72897FA
:1014A0000FB6F894DEBF0FBECDBF1092C50087E621
:1014B0008093C40088E08093C10080E091E0909325
:1014C0005301809352018EE091E00E94940A89E7D3
:1014D00099EEA6EFB2E48D839E83AF83B88785EC47
:1014E00090E4A5E4B4E489839A83AB83BC83298127
:1014F0003A814B815C816D817E818F8198850E94CC
:10150000E80829813A814B815C816D817E818F81E0
:1015100098850E94830988E291E00E94940A8BE4F6
:1015200091E00E94940AFFCF0F931F93CF93DF9314
:10153000E0915201F09153012381EC0110E000E0B1
:1015400021FD08C00FEF1FEF14C00995892B11F082
:101550000FEF1FEF89916091520170915301DB01F0
:101560001896ED91FC918111F0CF8AE00995892BB5
:1015700049F7C801DF91CF911F910F910895F89419
:02158000FFCF9B
:101582000000000200000000530800000000415665
:1015920052204661737420466C6F617420546573E7
:1015A20074202842544D29004D756C7469706C6921
:1015B200636174696F6E2F4469766973696F6E2017
:1015C200636F6D706C657465642E00444F4E450008
:00000001FF
