:100000000C94BC080C94D9080C94D9080C94D90809
:100010000C94D9080C94D9080C94D9080C94D908DC
:100020000C94D9080C94D9080C94D9080C94D908CC
:100030000C94D9080C94D9080C94D9080C94D908BC
:100040000C94D9080C94D9080C94D9080C94D908AC
:100050000C94D9080C94D9080C94D9080C94D9089C
:100060000C94D9080C94D9083F2403002092010075
:100070004806000024030000FF7FF67FD87FA67F9C
:10008000607F067F987E167E807DD77C1B7C4A7BB6
:10009000677A707967784A771B76D97485731F728F
:1000A000A7701D6F826DD66B196A4B686D667F6491
:1000B00081627460575E2C5CF359AB575655F3520E
:1000C0008350074E7E4BEA484A469F43E9402A3E0A
:1000D000603B8E38B235CE32E22FEF2CF529F42674
:1000E000EC23E020CE1DB71A9D177E145C11380E4C
:1000F000110BE907C00495016BFE40FB17F8EFF404
:10010000C8F1A4EE82EB63E849E532E220DF14DCBB
:100110000CD90BD611D31ED032CD4ECA72C7A0C493
:10012000D6C117BF61BCB6B916B782B4F9B17DAFFD
:100130000DADAAAA55A80DA6D4A3A9A18C9F7F9DF9
:10014000819B9399B597E7952A947E92E390598F76
:10015000E18D7B8C278BE589B68899879086998578
:10016000B684E58329838082EA816881FA80A08051
:100170005A8028800A80008000002A0354067E09E5
:10018000A50CCB0FEE120E162A19431C571F67221F
:1001900071257528732B6A2E593141342137F8396E
:1001A000C63C8B3F4542F6449B47354AC44C464FBC
:1001B000BD5126548256D158115B445D685F7C6105
:1001C000826378655E673469FA6AAE6C526EE46F7A
:1001D0006571D47231747C75B576DB77EE78EE7923
:1001E000DB7AB57B7B7C2E7DCE7D597ED17E357FC3
:1001F000857FC17FE97FFD7FFD7FE97FC17F857FAF
:10020000357FD17E597ECE7D2E7D7B7CB57BDB7AA2
:10021000EE79EE78DB77B5767C753174D4726571E2
:10022000E46F526EAE6CFA6A34695E677865826319
:100230007C61685F445D115BD15882562654BD5184
:10024000464FC44C354A9B47F64445428B3FC63C1B
:10025000F8392137413459316A2E732B75287125AD
:100260006722571F431C2A190E16EE12CB0FA50C3E
:100270007E0954062A0300000001FC00F800F40087
:10028000F100ED00EA00E700E300E000DD00DA0045
:10029000D700D500D200CF00CD00CA00C800C500ED
:1002A000C300C100BE00BC00BA00B800B600B40074
:1002B000B200B000AE00AC00AA00A900A700A500E3
:1002C000A400A200A0009F009D009C009A0099003D
:1002D0009700960095009300920091008F008E0089
:1002E0008D008C008B0089008800870086008500C7
:1002F000840083008200810080007F007E007D00FA
:100300007C007B007A007900780077007600760028
:1003100075007400730072007200710070006F004D
:100320006E006E006D006C006C006B006A0069006E
:100330006900680067006700660066006500640089
:1003400064006300620062006100610060006000A0
:100350005F005E005E005D005D005C005C005B00B5
:100360005B005A005A0059005900580058005700C5
:1003700057005600560056005500550054005400D2
:1003800053005300530052005200510051005000DE
:10039000500050004F004F004F004E004E004D00E7
:1003A0004D004D004C004C004C004B004B004B00EE
:1003B0004A004A004A0049004900490048004800F4
:1003C00048004700470047004600460046004600F8
:1003D00045004500450044004400440044004300FB
:1003E00043004300420042004200420041004100FD
:1003F0004100410040004000400040003F003F00FD
:100400003F003F003E003E003E003E003D003D00FC
:100410003D003D003D003C003C003C003C003B00FA
:100420003B003B003B003B003A003A003A003A00F8
:100430003A003900390039003900390038003800F5
:1004400038003800380037003700370037003700F1
:1004500036003600360036003600360035003500EE
:1004600035003500350035003400340034003400E8
:100470003400340033003300FF7FFE7FF67FEA7FD5
:10048000D97FC27FA77F877F627F387F0A7FD67E32
:100490009D7E607E1E7ED67D8A7D3A7DE47C897C51
:1004A0002A7CC67B5D7BEF7A7D7A067A8A790A7927
:1004B0008578FB776C77D9764276A675057560747A
:1004C000B673087355729E71E37023705F6F976EF9
:1004D000CA6DF96C246C4B6B6E6A8C69A768BD673A
:1004E000D066DE65E964EF63F262F161EC60E45FBF
:1004F000D75EC85DB45C9D5B825A645943581E57F1
:10050000F655CA549B5369523451FB4FC04E814D2E
:10051000404CFB4AB4496A481D47CD457B442643BD
:10052000CE417440173FB83D573CF33A8D392538DA
:10053000BA364E35DF336E32FC30872F112E992CB0
:100540001F2BA4292728A8262825A72324229F205B
:100550001A1F931D0C1C831AF9186E17E2155514F7
:10056000C8123A11AB0F1C0E8C0CFB0A6B09D90791
:100570004806B6042403920100006EFEDCFC4AFB30
:10058000B8F927F895F605F574F3E4F155F0C6EEE1
:1005900038EDABEB1EEA92E807E77DE5F4E36DE2A8
:1005A000E6E061DFDCDD59DCD8DA58D9D9D75CD692
:1005B000E1D467D3EFD179D004CF92CD21CCB2CAA8
:1005C00046C9DBC773C60DC5A9C348C2E9C08CBF05
:1005D00032BEDABC85BB33BAE3B896B74CB605B5C4
:1005E000C0B37FB240B105B0CCAE97AD65AC36AB11
:1005F0000AAAE2A8BDA79CA67EA563A44CA338A224
:1006000029A11CA0149F0F9E0E9D119C179B229A3E
:1006100030994398599774969295B594DC930793C3
:1006200036926991A190DD8F1D8F628EAB8DF88C13
:100630004A8CA08BFB8A5A8ABE89278994880588B0
:100640007B87F6867686FA8583851185A3843A842E
:10065000D68377831C83C68276822A82E281A08138
:1006600063812A81F680C8809E80798059803E808F
:10067000278016800A800280008002800A8016800F
:1006800027803E80598079809E80C880F6802A81AC
:100690006381A081E2812A827682C6821C8377836D
:1006A000D6833A84A38411858385FA857686F68677
:1006B0007B87058894882789BE895A8AFB8AA08B04
:1006C0004A8CF88CAB8D628E1D8FDD8FA190699165
:1006D00036920793DC93B594929574965997439804
:1006E0003099229A179B119C0E9D0F9E149F1CA05F
:1006F00029A138A24CA363A47EA59CA6BDA7E2A80D
:100700000AAA36AB65AC97ADCCAE05B040B17FB2AE
:10071000C0B305B54CB696B7E3B833BA85BBDABCFF
:1007200032BE8CBFE9C048C2A9C30DC573C6DBC7C2
:1007300046C9B2CA21CC92CD04CF79D0EFD167D3CC
:10074000E1D45CD6D9D758D9D8DA59DCDCDD61DF01
:10075000E6E06DE2F4E37DE507E792E81EEAABEB45
:1007600038EDC6EE55F0E4F174F305F595F627F88B
:10077000B8F94AFBDCFC6EFE000092012403B604CB
:100780004806D9076B09FB0A8C0C1C0EAB0F3A11FB
:10079000C8125514E2156E17F918831A0C1C931D14
:1007A0001A1F9F202422A7232825A8262728A4290A
:1007B0001F2B992C112E872FFC306E32DF334E35D4
:1007C000BA3625388D39F33A573CB83D173F744057
:1007D000CE4126437B44CD451D476A48B449FB4A78
:1007E000404C814DC04EFB4F345169529B53CA540B
:1007F000F6551E5743586459825A9D5BB45CC85DD8
:10080000D75EE45FEC60F161F262EF63E964DE659C
:10081000D066BD67A7688C696E6A4B6B246CF96CF7
:10082000CA6D976E5F6F2370E3709E715572087387
:10083000B67360740575A6754276D9766C77FB77CA
:1008400085780A798A79067A7D7AEF7A5D7BC67B2C
:100850002A7C897CE47C3A7D8A7DD67D1E7E607E02
:100860009D7ED67E0A7F387F627F877FA77FC27F8B
:10087000D97FEA7FF67FFE7F000092012403B60451
:100880004806D9076B09FB0A8C0C1C0EAB0F3A11FA
:10089000C8125514E2156E17F918831A0C1C931D13
:1008A0001A1F9F202422A7232825A8262728A42909
:1008B0001F2B992C112E872FFC306E32DF334E35D3
:1008C000BA3625388D39F33A573CB83D173F744056
:1008D000CE4126437B44CD451D476A48B449FB4A77
:1008E000404C814DC04EFB4F345169529B53CA540A
:1008F000F6551E5743586459825A9D5BB45CC85DD7
:10090000D75EE45FEC60F161F262EF63E964DE659B
:10091000D066BD67A7688C696E6A4B6B246CF96CF6
:10092000CA6D976E5F6F2370E3709E715572087386
:10093000B67360740575A6754276D9766C77FB77C9
:1009400085780A798A79067A7D7AEF7A5D7BC67B2B
:100950002A7C897CE47C3A7D8A7DD67D1E7E607E01
:100960009D7ED67E0A7F387F627F877FA77FC27F8A
:10097000D97FEA7FF67FFE7FFF7FFE7FF67FEA7FEB
:10098000D97FC27FA77F877F627F387F0A7FD67E2D
:100990009D7E607E1E7ED67D8A7D3A7DE47C897C4C
:1009A0002A7CC67B5D7BEF7A7D7A067A8A790A7922
:1009B0008578FB776C77D9764276A6750575607475
:1009C000B673087355729E71E37023705F6F976EF4
:1009D000CA6DF96C246C4B6B6E6A8C69A768BD6735
:1009E000D066DE65E964EF63F262F161EC60E45FBA
:1009F000D75EC85DB45C9D5B825A645943581E57EC
:100A0000F655CA549B5369523451FB4FC04E814D29
:100A1000404CFB4AB4496A481D47CD457B442643B8
:100A2000CE417440173FB83D573CF33A8D392538D5
:100A3000BA364E35DF336E32FC30872F112E992CAB
:100A40001F2BA4292728A8262825A72324229F2056
:100A50001A1F931D0C1C831AF9186E17E2155514F2
:100A6000C8123A11AB0F1C0E8C0CFB0A6B09D9078C
:100A70004806B6042403920100006EFEDCFC4AFB2B
:100A8000B8F927F895F605F574F3E4F155F0C6EEDC
:100A900038EDABEB1EEA92E807E77DE5F4E36DE2A3
:100AA000E6E061DFDCDD59DCD8DA58D9D9D75CD68D
:100AB000E1D467D3EFD179D004CF92CD21CCB2CAA3
:100AC00046C9DBC773C60DC5A9C348C2E9C08CBF00
:100AD00032BEDABC85BB33BAE3B896B74CB605B5BF
:100AE000C0B37FB240B105B0CCAE97AD65AC36AB0C
:100AF0000AAAE2A8BDA79CA67EA563A44CA338A21F
:100B000029A11CA0149F0F9E0E9D119C179B229A39
:100B100030994398599774969295B594DC930793BE
:100B200036926991A190DD8F1D8F628EAB8DF88C0E
:100B30004A8CA08BFB8A5A8ABE89278994880588AB
:100B40007B87F6867686FA8583851185A3843A8429
:100B5000D68377831C83C68276822A82E281A08133
:100B600063812A81F680C8809E80798059803E808A
:100B7000278016800A800280008002800A8016800A
:100B800027803E80598079809E80C880F6802A81A7
:100B90006381A081E2812A827682C6821C83778368
:100BA000D6833A84A38411858385FA857686F68672
:100BB0007B87058894882789BE895A8AFB8AA08BFF
:100BC0004A8CF88CAB8D628E1D8FDD8FA190699160
:100BD00036920793DC93B5949295749659974398FF
:100BE0003099229A179B119C0E9D0F9E149F1CA05A
:100BF00029A138A24CA363A47EA59CA6BDA7E2A808
:100C00000AAA36AB65AC97ADCCAE05B040B17FB2A9
:100C1000C0B305B54CB696B7E3B833BA85BBDABCFA
:100C200032BE8CBFE9C048C2A9C30DC573C6DBC7BD
:100C300046C9B2CA21CC92CD04CF79D0EFD167D3C7
:100C4000E1D45CD6D9D758D9D8DA59DCDCDD61DFFC
:100C5000E6E06DE2F4E37DE507E792E81EEAABEB40
:100C600038EDC6EE55F0E4F174F305F595F627F886
:100C7000B8F94AFBDCFC6EFE000101010101020132
:100C80000301030104010501060106010701080132
:100C9000080109010A010B010B010C010D010E01F4
:100CA0000E010F01100110011101120113011301B6
:100CB0001401150116011601170118011901190176
:100CC0001A011B011C011D011D011E011F01200134
:100CD00020012101220123012401240125012601F3
:100CE00027012801280129012A012B012C012C01AF
:100CF0002D012E012F01300130013101320133016C
:100D000034013501350136013701380139013A0125
:100D10003A013B013C013D013E013F0140014101DF
:100D20004101420143014401450146014701480197
:100D3000480149014A014B014C014D014E014F014F
:100D40005001510151015201530154015501560105
:100D50005701580159015A015B015C015D015E01B7
:100D60005E015F016001610162016301640165016F
:100D700066016701680169016A016B016C016D011F
:100D80006E016F01700171017201730174017501CF
:100D900076017701780179017A017B017C017D017F
:100DA0007E017F018001810182018301840185012F
:100DB0008701880189018A018B018C018D018E01D7
:100DC0008F01900191019201930195019601970184
:100DD000980199019A019B019C019D019F01A0012D
:100DE000A101A201A301A401A501A601A801A901D5
:100DF000AA01AB01AC01AD01AF01B001B101B2017B
:100E0000B301B401B601B701B801B901BA01BC011F
:100E1000BD01BE01BF01C001C201C301C401C501C2
:100E2000C601C801C901CA01CB01CD01CE01CF0164
:100E3000D001D201D301D401D601D701D801D90103
:100E4000DB01DC01DD01DE01E001E101E201E401A1
:100E5000E501E601E801E901EA01EC01ED01EE013D
:100E6000F001F101F201F401F501F601F801F901D7
:100E7000FA01FC01FD01FF010000000000019601E4
:100E8000000252029602CF0200032C0352037603A3
:100E90009603B303CF03E803000416042C043F04B5
:100EA00052046404760486049604A504B304C104C1
:100EB000CF04DC04E804F40400050B051605210545
:100EC0002C0536053F05490552055C0564056D0591
:100ED00076057E0586058E0596059D05A505AC055E
:100EE000B305BA05C105C805CF05D505DC05E20582
:100EF000E805EE05F405FA05000606060B061106E0
:100F000016061C06210626062C06310636063B066A
:100F10003F06440649064E06520657065C06600622
:100F2000640669066D06710676067A067E068206F6
:100F300086068A068E06920696069A069D06A106E3
:100F4000A506A906AC06B006B306B706BA06BE06E5
:100F5000C106C506C806CB06CF06D206D506D806FA
:100F6000DC06DF06E206E506E806EB06EE06F1061D
:100F7000F406F706FA06FD06000703070607090749
:100F80000B070E0711071407160719071C071E0782
:100F900021072407260729072C072E0731073307C7
:100FA000360738073B073D073F0742074407470717
:100FB00049074B074E075007520755075707590770
:100FC0005C075E07600762076407670769076B07CE
:100FD0006D076F0771077407760778077A077C0734
:100FE0007E07800782078407860788078A078C07A1
:100FF0008E07900792079407960798079A079B0712
:101000009D079F07A107A307A507A707A907AA0789
:10101000AC07AE07B007B207B307B507B707B90704
:10102000BA07BC07BE07C007C107C307C507C60785
:10103000C807CA07CB07CD07CF07D007D207D40709
:10104000D507D707D807DA07DC07DD07DF07E00792
:10105000E207E407E507E707E807EA07EB07ED071C
:10106000EE07F007F107F307F407F607F707F907AC
:10107000FA07FC07FD07FF07000001010202020258
:101080000303030303030303040404040404040428
:101090000404040404040404050505050505050508
:1010A00005050505050505050505050505050505F0
:1010B00005050505050505050606060606060606D8
:1010C00006060606060606060606060606060606C0
:1010D00006060606060606060606060606060606B0
:1010E00006060606060606060606060606060606A0
:1010F0000606060606060606070707070707070788
:10110000070707070707070707070707070707076F
:10111000070707070707070707070707070707075F
:10112000070707070707070707070707070707074F
:10113000070707070707070707070707070707073F
:10114000070707070707070707070707070707072F
:10115000070707070707070707070707070707071F
:10116000070707070707070707070707070707070F
:10117000070707070707070711241FBECFEFD8E0AF
:10118000DEBFCDBF11E0A0E0B1E0EEEDF9E102C0BD
:1011900005900D92AC36B107D9F721E0ACE6B1E08D
:1011A00001C01D92A237B207E1F70E942C090C94EE
:1011B000ED0C0C940000CF93C82F8A3019F48DE009
:1011C0000E94DB088091C00085FFFCCFC093C60061
:1011D00090E080E0CF910895009709F438C0292F5E
:1011E00033272115310569F128583F4EF9016491E3
:1011F000685FB0E0A0E02FE030E0261B310904C0BA
:10120000880F991FAA1FBB1F2A95D2F7292F30E0FC
:10121000220F331F2858314FF90125913491062EA2
:10122000000C770B67507109072E000C880B990B87
:10123000982F872F762F6627620F731F811D911DB0
:101240000895BC0168587F4EFB016491D2CF60E0E5
:1012500070E080E090E80895CF93DF93CDB7DEB7DC
:10126000A2970FB6F894DEBF0FBECDBF1092C50097
:1012700087E68093C40088E08093C10080E091E01D
:1012800090936F0180936E018EE291E00E940D0AAF
:1012900080E2EEE0F1E0DE01119601900D928A9578
:1012A000E1F78E010F5F1F4FCE0181969AA389A3AC
:1012B00048E0A42EB12CF801E080F180C280D380F8
:1012C0009701D6010E94E809962E872E382E292EE6
:1012D000E114F10431F580E090E0DC01BF93AF93BD
:1012E0009F938F932F923F928F929F92DF92CF92F4
:1012F000FF92EF9286E491E09F938F930E94F7090B
:101300000C5F1F4F0FB6F894DEBF0FBECDBFE9A133
:10131000FAA1E017F10779F686E691E00E940D0A3E
:10132000FFCFC114D104B9F2C7010E94EC082B0110
:101330003C01C6010E94EC08DC01CB01840D951D27
:10134000A61DB71D8130F0E89F07FFEFAF07BF076D
:1013500014F2492F5A2F6B2F772767FD7A9590E06B
:10136000880F991F8858934FFC01859194914032C2
:1013700051056105710544F5483051056105710558
:1013800064F0B0E0A0E04850510904C0880F991FF4
:10139000AA1FBB1F4A95D2F7A1CF77FD0DC0B0E0C1
:1013A000A0E09501241B350B04C0B695A795979531
:1013B00087952A95D2F792CF22273327241B350B06
:1013C0002831310560F387CF8FEF9FEFDC0186CFA7
:1013D000A29FB001B39FC001A39F700D811D112476
:1013E000911DB29F700D811D1124911D0895B0E0D3
:1013F000A0E0EDEFF9E00C94C60CAE014B5F5F4F3F
:10140000FA0161917191AF0180916E0190916F012C
:101410000E94380AE2E00C94E20C0F931F93CF93E2
:10142000DF93E0916E01F0916F012381EC0110E0F8
:1014300000E021FD08C00FEF1FEF14C00995892BB4
:1014400011F00FEF1FEF899160916E0170916F01A4
:10145000DB011896ED91FC918111F0CF8AE009959E
:10146000892B49F7C801DF91CF911F910F91089502
:10147000ABE0B0E0EEE3FAE00C94B60C7C013B018B
:101480008A01FC0117821682838181FFC8C1CE01C7
:1014900001965C01F7019381F30193FD859193FF20
:1014A00081913F01882309F453C1853239F493FDBA
:1014B000859193FF81913F01853229F4B70190E036
:1014C0000E94280CE7CF912C212C312CFFE1F31541
:1014D00038F08B3211F190F4803209F1833229F126
:1014E00037FC3CC020ED280F2A3050F536FE20C0D6
:1014F0008AE0989E200D1124922E06C08D3291F024
:10150000803371F7689430F8F30193FD859193FF70
:1015100081913F018111DACF21C0689431F868943C
:1015200032F8F2CF689433F8EFCF689434F8ECCF08
:10153000EAE02E9E200D1124222E689435F8E4CF87
:101540008E3229F436FC04C1689436F8DDCF8C362F
:1015500019F4689437F8D8CF8836B1F2982F9F7D68
:1015600095549330E0F08336A1F18337C1F1833590
:1015700009F063C02801F2E04F0E511CF801C08051
:10158000D180692D70E036FC02C06FEF7FEFC6019D
:101590000E94120C4C01689437F882010AC00C5F5B
:1015A0001F4FFFE3F98388248394912C6501E8940D
:1015B00037F833FE2DC0522C8114910471F555205B
:1015C00009F468CFB70180E290E00E94280C5A9499
:1015D000F6CFF801808189830E5F1F4FE4CF280189
:1015E000F2E04F0E511CF801C080D180692D70E0EF
:1015F00036FC02C06FEF7FEFC6010E941D0C4C014C
:101600008201D5CFB70180E290E00E94280C2A9495
:101610002814190409F0B0F7CECFF60137FC8591F4
:1016200037FE81916F01B70190E00E94280C5110A4
:101630005A94F1E08F1A9108BFCF843619F0893699
:1016400009F077C0F80137FE6BC06081718182813B
:1016500093810C5F1F4FF32DFF763F2E97FF09C03C
:1016600090958095709561957F4F8F4F9F4F6894AF
:1016700037F82AE030E0A5010E94580CC82ECA189D
:101680008C2C432C36FE0CC0E89440F8C91440F46E
:1016900034FE05C032FC03C0F32DFE7E4F2E892C94
:1016A00044FE95C0FE01EC0DF11D8081803309F0F0
:1016B00087C0242D297E422E842D8870582E43FC0D
:1016C00095C040FE8FC09C2C821418F42C0C922CD8
:1016D000981844FE91C0B70180E390E00E94280C66
:1016E00042FE09C088E790E041FE02C088E590E034
:1016F000B7010E94280CC91408F48AC0CA94D12CDE
:101700009FEFC91AD90ACA0CDB1CF60182916F013E
:10171000B70190E00E94280CAC14BD04B1F74FCF84
:1017200060817181072E000C880B990B0E5F1F4F93
:1017300092CFD32CE894D4F82AE030E0853739F101
:10174000232D297FD22E8F3601F148F48835A9F058
:10175000F701868197812B96E2E10C94D20C8037B9
:1017600049F08837A9F7D4FE02C06894D2F820E186
:1017700030E00DC06894D4F8F6CF34FE03C0822F59
:101780008660D82E20E132E002C028E030E0F80187
:10179000D7FE0FC060817181828193810C5F1F4FE2
:1017A000A5010E94580CC82ECA183D2CE89437F8A1
:1017B00067CF6081718190E080E00E5F1F4FF0CFB6
:1017C00042FC02C0839478CF8394839475CF842D98
:1017D000867809F471CFF6CFB70180E290E00E94DD
:1017E000280C83948214C0F3512C73CF522C5818B8
:1017F000821408F46ECFF8CF842D867809F47BCF5D
:101800008BE241FE80E247FC8DE2B70190E071CFB0
:10181000B70180E390E00E94280C9A946CCF8FEF80
:101820009FEF99CFFC010590615070400110D8F7EF
:10183000809590958E0F9F1F0895FC016150704018
:1018400001900110D8F7809590958E0F9F1F0895F5
:101850000F931F93CF93DF93182F092FEB018B81E9
:1018600081FD09C01FEF0FEF812F902FDF91CF91E6
:101870001F910F91089582FF14C02E813F818C81AA
:101880009D81281739073CF4E881F981CF01019641
:101890009983888310838E819F8101969F838E8395
:1018A000E3CFE885F985812F0995892BA1F3DACF5C
:1018B000FA01AA27283051F1203181F1E8946F9381
:1018C0006E7F6E5F7F4F8F4F9F4FAF4FB1E03ED027
:1018D000B4E03CD0670F781F891F9A1FA11D680FC5
:1018E000791F8A1F911DA11D6A0F711D811D911DF8
:1018F000A11D20D009F468943F912AE0269F11246D
:101900003019305D3193DEF6CF010895462F4770D0
:10191000405D4193B3E00FD0C9F7F6CF462F4F702B
:10192000405D4A3318F0495D31FD4052419302D089
:10193000A9F7EACFB4E0A69597958795779567952F
:10194000BA95C9F700976105710508959B01AC012F
:101950000A2E06945795479537952795BA95C9F756
:10196000620F731F841F951FA01D08952F923F9231
:101970004F925F926F927F928F929F92AF92BF929F
:10198000CF92DF92EF92FF920F931F93CF93DF934B
:10199000CDB7DEB7CA1BDB0B0FB6F894DEBF0FBEA8
:1019A000CDBF09942A88398848885F846E847D84F5
:1019B0008C849B84AA84B984C884DF80EE80FD80F7
:1019C0000C811B81AA81B981CE0FD11D0FB6F8946D
:0E19D000DEBF0FBECDBFED010895F894FFCF2E
:1019DE000000000200000000DB0800000000010013
:1019EE0001007B00C80130750200FFFFFFFFFF03FF
:1019FE00FF01F401F4010000640064000000415690
:101A0E00522046617374204D756C2054657374209A
:101A1E005374617274002575202A2025753A20654D
:101A2E007861637420256C752C20617070726F78EC
:0C1A3E0020256C750A00444F4E45000046
:00000001FF
